:020000040000FA
:100000000C944A040C9472040C9472040C947204C0
:100010000C9472040C9472040C9472040C94720488
:100020000C9472040C9472040C947E0F0C94ED0FDB
:100030000C9472040C9472040C9472040C94720468
:100040000C9472040C9472040C9472040C94720458
:100050000C9472040C9472040C9472040C94340F7B
:100060000C9472040C9472040C9472040C94720438
:100070000C9472040C9472040C9472040C94720428
:100080000C9419120C9472040C9472040C94720463
:100090000C9472040C9472040C9472040C94720408
:1000A0000C9472040C9472040C947204AED580A863
:1000B0003FD300408D142002A1C8DA12817FD9F10C
:1000C000DB40A4A6AF070605040100080A0B0C0DCF
:1000D0000900030C0F30333C3FC0C3CCCFF0F3FC1E
:1000E000FF000000002300260029002C002F00083C
:1000F0000B000202020000090400000102020000DD
:100100000524001001052401010104240206052430
:100110000600010705810310004009040100020ADE
:1001200000000007050202400000070583024000AE
:10013000000403090412010002EF0201404F1B06F4
:1001400092000101020301537061726B46756E00EB
:10015000537061726B46756E2050726F204D6963EB
:10016000726F000000050720600000000000000022
:100170005F00000007000700147F147F14242A7F0B
:100180002A122313086462364956205000080703D8
:1001900000001C2241000041221C002A1C7F1C2A56
:1001A00008083E08080080703000080808080800A9
:1001B0000060600020100804023E5149453E0042A4
:1001C0007F400072494949462141494D3318141274
:1001D0007F1027454545393C4A494931412111099C
:1001E000073649494936464949291E00001400008E
:1001F00000403400000008142241141414141400A8
:100200004122140802015909063E415D594E7C12F3
:1002100011127C7F494949363E414141227F41418B
:10022000413E7F494949417F090909013E41415108
:10023000737F0808087F00417F41002040413F0153
:100240007F081422417F404040407F021C027F7F94
:100250000408107F3E4141413E7F090909063E41A5
:1002600051215E7F09192946264949493203017FF8
:1002700001033F4040403F1F2040201F3F40384087
:100280003F631408146303047804036159494D4320
:10029000007F4141410204081020004141417F0498
:1002A000020102044040404040000307080020547F
:1002B0005478407F284444383844444428384444DF
:1002C000287F385454541800087E090218A4A49CAE
:1002D000787F0804047800447D40002040403D00C1
:1002E0007F1028440000417F40007C047804787C23
:1002F000080404783844444438FC1824241818248A
:100300002418FC7C08040408485454542404043F72
:1003100044243C4040207C1C2040201C3C40304079
:100320003C44281028444C9090907C4464544C44A5
:100330000008364100000077000000413608000246
:10034000010204023C2623263CAC00198040000038
:10035000000000240027002A002D003000000000CB
:1003600000250028002B002E0031000404040404A2
:100370000304050202020204030202020206060648
:1003800006060604040202020404040802011040E6
:1003900080401020408040800802040180402010EE
:1003A0000201108010204040200000000200090FD0
:1003B0000000030401000C00000000000000000029
:1003C00000000000000000050F0992A1028502094B
:1003D0009F09A009A409A509A61500250135004516
:1003E0000175019505810295038103099415002586
:1003F000013500450175019501810209221501258C
:100400002835014528750795018102C00921A102FF
:100410008501092215012528350145287508950112
:1004200091020925A102092609270930093109325B
:1004300009330934094009410942094309280928B7
:100440001501250C3501450C750895019100C00971
:100450005009540951150026FF7F350046FF7F667D
:10046000031055FD751095039102550066000009B3
:1004700052150026FF00350046102775089501919A
:1004800002095315012508350145087508950191A4
:10049000020955A102050109300931150025017530
:1004A0000195029102C0050F09569501910295052B
:1004B00091030957A1020B01000A000B02000A0078
:1004C00066140055FE150026FF00350047A08C007D
:1004D000006600007508950291025500660000C094
:1004E000050F0958A1020B01000A000B02000A00C7
:1004F00026FD7F751095029102C0C0095AA10285A0
:100500000209221501252835014528750895019114
:1005100002095B095D160000261027360000461010
:1005200027751095029102095C095E66031055FD5E
:1005300027FF7F000047FF7F000075209502910292
:1005400045006600005500C0095FA102850309222D
:1005500015012528350145287508950191020923C3
:1005600015002503350045037504950191020958CE
:10057000A1020B01000A000B02000A00750295029D
:100580009102C016F0D826102736F0D84610270959
:100590006075109501910236F0D84610270961095F
:1005A00062950291021600002610273600004610C0
:1005B00027096309647510950291020965461027A1
:1005C00095019102C0096EA1028504092215012539
:1005D000283501452875089501910209701600001B
:1005E0002610273600004610277510950191020944
:1005F0006F16F0D826102736F0D8461027950175CB
:10060000109102097166140055FE1500279F8C0099
:10061000003500479F8C000075109501910209720A
:10062000150027FF7F0000350047FF7F00006603AD
:100630001055FD7520950191026600005500C00916
:1006400073A1028505092215012528350145287564
:100650000895019102097016F0D826102736F0D8B7
:10066000461027751095019102C00974A1028506F4
:1006700009221501252835014528750895019102A3
:100680000975097616F0D826102736F0D8461027B7
:10069000751095029102C00968A10285070922150B
:1006A00001252835014528750895019102096C1529
:1006B0000026102735004610277510950191020974
:1006C000691581257F350046FF007508950C92025B
:1006D00001C00966A10285080501093009311581AB
:1006E000257F350046FF00750895019102C0050F72
:1006F0000977A102850A0922150125283501452817
:100700007508950191020978A1020979097A097B96
:1007100015012503750895019100C0097C15002677
:10072000FF00350046FF009102C00990A102850B31
:1007300009221501252835014528750895019102E2
:10074000C00996A102850C099709980999099A0987
:100750009B099C15012506750895019100C0097D2E
:10076000A102850D097E150026FF003500461027E1
:10077000750895019102C0096BA102850E09221529
:1007800001252835014528750895019102096D1547
:100790000026FF00350046FF00750895019102090B
:1007A0005166031055FD150026FF7F350046FF7F7B
:1007B0007510950191025500660000C009ABA102B9
:1007C00085050925A10209260927093009310932C1
:1007D0000933093409400941094209430928250C14
:1007E00015013501450C75089501B100C0050109D9
:1007F0003B150026FF01350046FF01750A9501B142
:10080000027506B101C0050F0989A10285060922FA
:10081000252815013501452875089501B102098B78
:10082000A102098C098D098E2503150135014503A7
:1008300075089501B100C009AC150027FFFF000045
:10084000350047FFFF000075109501B100C0097F1A
:10085000A10285070980751095011500350027FF55
:10086000FF000047FFFF0000B102098326FF00469A
:10087000FF0075089501B10209A909AA7501950241
:100880001500250135004501B10275069501B1033A
:10089000C0C0EC1311241FBECFEFDAE0DEBFCDBF26
:1008A00013E0A0E0B1E0EAE4F8E302C005900D92A5
:1008B000AE3BB107D9F72AE0AEEBB3E001C01D9221
:1008C000AB30B207E1F714E0CAE4D4E004C02197EA
:1008D000FE010E94D61AC934D107C9F70E94FC153F
:1008E0000C94231C0C940000CF92DF92EF92FF92A5
:1008F0000F931F93CF93DF93D901E8016A01F901A8
:100900004217530714F06901FA01882309F440C023
:10091000CB016C157D050CF4C6019F018E179F0756
:100920000CF49C01A417B50734F4CF01821B930B80
:100930009C012C0D3D1D0D2C000CEE08FF08032E14
:10094000000C440B550B2C193D094E095F09AEEF05
:10095000BFEF0E94861A9F01FF0F440B550B2C1905
:100960003D094E095F090E94671ADA01C9018F5FCC
:100970009F47A109B1098883998382E090E0DF91C4
:10098000CF911F910F91FF90EF90DF90CF9008953E
:1009900090E080E0F4CF81508F3008F047C0E82F1E
:1009A000F0E0EB52FB4F0C94D61AF204F604E40488
:1009B000EA04EE04160516051605F904FF040305FE
:1009C00007050D0516051105809180008F7780932E
:1009D00080000895809180008F7DF9CF8091800004
:1009E000877FF5CF84B58F7784BD089584B58F7DDB
:1009F000FBCF809190008F77809390000895809135
:100A000090008F7DF9CF80919000877FF5CF809106
:100A1000C0008F778093C00008958091C0008F7DC3
:100A2000F9CF8091C200877F8093C2000895CF9351
:100A3000DF93282F30E0F901E755FC4F8491F9014D
:100A4000E657FC4FD491F901E559FC4FC491CC23F2
:100A500089F081110E94CB04EC2FF0E0EE0FFF1F14
:100A6000E35AFC4FA591B4918FB7F894EC91DE2B2B
:100A7000DC938FBFDF91CF910895CF93DF9390E008
:100A8000FC01E657FC4F249185599C4FFC01849151
:100A90008823D1F090E0880F991FFC01E15BFC4FA7
:100AA000A591B491FC01E35AFC4FC591D4916230F9
:100AB00071F49FB7F8943C91822F809583238C9397
:100AC000E8812E2B28839FBFDF91CF9108958FB7A8
:100AD000F894EC912E2B2C938FBFF6CF3FB7F89460
:100AE0008091FD039091FE03A091FF03B09100045B
:100AF00026B5A89B05C02F3F19F00196A11DB11D79
:100B00003FBFBA2FA92F982F8827BC01CD01620FB4
:100B1000711D811D911D42E0660F771F881F991F6F
:100B20004A95D1F708958F929F92AF92BF92CF923C
:100B3000DF92EF92FF924B015C010E946E056B0108
:100B40007C010E946E056C197D098E099F09683E23
:100B5000734081059105A8F321E0821A9108A1084C
:100B6000B10888EEC80E83E0D81EE11CF11C811488
:100B70009104A104B10429F7FF90EF90DF90CF908A
:100B8000BF90AF909F908F9008952FB7F894609189
:100B9000F9037091FA038091FB039091FC032FBF3E
:100BA00008954091CC035091CD032091CA03309118
:100BB000CB0342175307B4F49091E8009570E1F32A
:100BC0009091E80092FD19C08093F1008091CC03D0
:100BD0009091CD0301968F739927892B19F48EEF8D
:100BE0008093E8008091CC039091CD03019690937F
:100BF000CD038093CC0381E0089580E00895EF92C7
:100C0000FF920F931F93CF93DF93F82E192FE62EA9
:100C1000042F81E0860F880F0E94D10583E00E9497
:100C2000D105CF2DD12FEC0EFD2EF11CCE15DF05F9
:100C3000B9F007FF13C0FE0184910E94D105182F5F
:100C400080E00E94D105812321968111EFCFDF91B1
:100C5000CF911F910F91FF90EF9008958881EDCF74
:100C600081E0F5CFDF92EF92FF920F931F93CF9326
:100C7000DF93D82E8A01EB017B01E40EF51ECE1521
:100C8000DF0559F0D7FE12C0FE0184910E94D10504
:100C900021968111F4CF0FEF1FEFC801DF91CF91A3
:100CA0001F910F91FF90EF90DF9008958881EECF14
:100CB0002FB7F89487708093E9009091E800892F0E
:100CC000807295FF04C09091F20080E4891B2FBFD1
:100CD00008957F928F929F92AF92BF92CF92DF92B0
:100CE000EF92FF920F931F93CF93DF93C82E8B0148
:100CF0007A018091D303811110C08FEF9FEFDF91B4
:100D0000CF911F910F91FF90EF90DF90CF90BF9008
:100D1000AF909F908F907F9008958091D10380FF36
:100D200005C08091E00082608093E000CE2DDF2D31
:100D3000D12C8AEFB82E8C2D8770982E8C2D807236
:100D4000882E8C2D8074782E9AE3A92E209719F482
:100D5000DD2009F452C08C2D0E94580681110AC072
:100D6000BA94BB2051F261E070E080E090E00E9414
:100D70009305ECCF8C171D0611F00CF08C2F9FB74C
:100D8000F8949092E9002091E80025FD02C09FBFF1
:100D9000DDCF282F30E0C21BD30B882029F08150F3
:100DA000A0F01092F100FBCFF801C7FC0AC08150FF
:100DB00050F041914093F100FACF44914093F100FB
:100DC00031968150D0F7020F131FDD2021F0A09241
:100DD000E800D12CDCCF8091E80085FD07C0A0920F
:100DE000E800DD24D394209791F2F3CF209779F691
:100DF000772069F2A092E800CACF5D9884E68093DC
:100E0000D003C7017CCF9091D303992319F13FB749
:100E1000F89487708093E9008091F20090E0481781
:100E200059070CF4CA01282FFB0154E6215038F071
:100E300028985093CF034091F1004193F7CF00974A
:100E400039F02091F200211103C02BE62093E80035
:100E50003FBF08958FEF9FEF08959FB7F894877075
:100E60008093E9008091F2009FBF0895615030F0B7
:100E70002091F100FC0120830196F8CF289884E6A8
:100E80008093CF030895AF92BF92DF92EF92FF92CB
:100E90000F931F93CF93DF935C018B01EB019BEFCB
:100EA000D92E2097C1F07E01C134D1051CF080E419
:100EB000E82EF12C8091E80082FFFCCFC8018C1B4A
:100EC0009D0B6E2D8A0D9B1D0E943607D092E80067
:100ED000CE19DF09E6CFC801DF91CF911F910F91A5
:100EE000FF90EF90DF90BF90AF900895AF92BF92C8
:100EF000CF92DF92EF92FF920F931F93CF93DF93E6
:100F00006C017B018B01040F151FEB015E01AE1814
:100F1000BF08C017D10759F06991D601ED91FC9136
:100F20000190F081E02DC6010995892B79F7C50163
:100F3000DF91CF911F910F91FF90EF90DF90CF90B5
:100F4000BF90AF9008958091C20381110DC082E0DF
:100F50008093BE0384E08093BF031092C10310927C
:100F6000C00381E08093C2038EEB93E00895CF939A
:100F7000DF9382E08093550481E08093560424E35C
:100F800038E0309358042093570410925A0410927A
:100F900059042DE431E0309352042093510410920F
:100FA0001D0810921E0810921F081092200810921F
:100FB00022081092210810922408109223082091F0
:100FC0004001309141014091420120932508309326
:100FD00026084093270880935B0410921C08109207
:100FE000770810927608109279081092780880930A
:100FF0007A0880937B0881EC8093340880EC80939E
:1010000035080E94A307FC01818190915504482F67
:10101000490F5527551F483051059CF5A281B381D2
:10102000109709F521E534E0338322832081209352
:1010300053048093540480915604820F808320913E
:101040005704A22FB09158048A2F821B8917C8F425
:1010500081813D91C82FD0E0CD5CDE4F38838F5F1A
:101060008183F2CFD90118962D913C9119972115C2
:101070003105C1F721E534E019963C932E9318977A
:10108000D5CFDF91CF9108950F931F93CF93DF9327
:101090001F92CDB7DEB782E0898342E450E06FEE65
:1010A00070E080E80E9432060E94A307DC011296DD
:1010B0000D911C910115110589F0D801ED91FC915C
:1010C0000280F381E02DBE016F5F7F4FC80109955B
:1010D00097FD04C0F80100851185ECCF89810F9040
:1010E000DF91CF911F910F910895CF93DF93EC0182
:1010F00080910B01882331F083E00E946906181665
:10110000190634F081E090E09B838A8380E090E0D0
:10111000DF91CF910895CF93DF931F92CDB7DEB7C4
:101120006983DC01ED91FC910280F381E02D41E0C7
:1011300050E0BE016F5F7F4F09950F90DF91CF9117
:10114000089583E08093E9008091F200882319F0EC
:101150008AE38093E800089583E00E94580690E0B7
:101160000895CF93DF931F92CDB7DEB7FC0184853E
:10117000958597FD08C02FEF3FEF358724870F90A7
:10118000DF91CF91089541E050E0BE016F5F7F4F46
:1011900082E00E940307019719F4898190E0EFCF64
:1011A0008FEF9FEFECCF0F931F93CF93DF931F929F
:1011B000CDB7DEB78C01FC018485958597FF0FC004
:1011C00041E050E0BE016F5F7F4F82E00E94030765
:1011D000019771F4898190E0F80195878487F8017F
:1011E000848595850F90DF91CF911F910F91089580
:1011F0008FEF9FEFF1CFFC018485958597FD06C0A9
:1012000082E00E942D0790E00196089582E00E94FE
:101210002D0790E00895CF92DF92EF92FF920F9307
:101220001F93CF93DF93EC01CC80DD80EE80FF80B5
:101230000E94C5056C157D058E059F0508F438C014
:10124000288130E0F901E755FC4F8491F901E65718
:10125000FC4F0491F901E559FC4F14911123B9F1A8
:1012600081110E94CB04E12FF0E0EE0FFF1FEF5140
:10127000FF4FA591B491EC910E2331E020E009F4E9
:1012800030E0832F922F2B812817190689F00E94B6
:10129000C50529813A81620F731F811D911D6C83E1
:1012A0007D838E839F838B8191E089278B839887B1
:1012B0008B8181110FC0888581111886DF91CF91B4
:1012C0001F910F91FF90EF90DF90CF90089590E0E5
:1012D00080E0D9CF80E0F2CFCF93DF93EC018D8512
:1012E000882329F081508D87DF91CF9108959C81CB
:1012F0008E819817C8F788896827E881F98100846A
:10130000F185E02D42E0CE0109958C818F5F8C83C1
:10131000EBCFDC01ED91FC910084F185E02D40E004
:101320000994FC012781269526952695621738F4A5
:1013300065832385620F6770606B0C94890908953B
:101340000F931F93CF93FC012681621798F4C62F49
:101350008C0164836085C60F6C2F6F700E948909B1
:101360006C2F62956F706061C801CF911F910F91D2
:101370000C948909CF911F910F910895CF92DF921C
:10138000EF92FF920F931F93CF93DF93EC01F62E12
:10139000C42ED22E1D868F81869586958695081738
:1013A00010F00FEF080F1D2D6F2DCE01011788F0E3
:1013B0000E94A009612FCE010E949109EF2CCE144A
:1013C00030F06889CE010E946C09E394F8CF1F5F6A
:1013D000EBCF0E94A0096D2DCE01DF91CF911F911F
:1013E0000F91FF90EF90DF90CF900C9491092F9286
:1013F0003F924F925F926F927F928F929F92AF92A5
:10140000BF92CF92DF92EF92FF920F931F93CF93F1
:10141000DF9300D000D000D01F92CDB7DEB79F83FE
:101420008E83DC011E968D919C91009709F477C103
:10143000FC013296549031962491E22EF12CB7E0C3
:10144000EB0EF11C43E0F594E7944A95E1F7E9824D
:1014500031963491319644916D3001F560E08E8182
:101460009F810E94A00981E090E027960FB6F89432
:10147000DEBF0FBECDBFDF91CF911F910F91FF90C7
:10148000EF90DF90CF90BF90AF909F908F907F9024
:101490006F905F904F903F902F9008956A3009F0C1
:1014A00061C060E08E819F810E94A009EE81FF8172
:1014B00001890E9DE02C112465816E0D84858823A1
:1014C00049F027812695269526958E2D821B860F1D
:1014D00018162CF08E819F810E949109C4CFAE8195
:1014E000BF811B969C911B97890F87701B968C93CD
:1014F0001B972E1915962C9315971E96ED91FC911E
:10150000309771F13396E491F0E0379633E0F5953A
:10151000E7953A95E1F70E9F002D1124EFEFE20FCA
:101520000E0FEE81FF81468141506481CF010E9400
:10153000BE09AE81BF811C968C911C97813009F049
:1015400092CF1B966C911B97660F660F660F6F7399
:101550001A966C931A976064CD010E94890983CF13
:1015600000E0DCCF631760F1A32FA40FBB27BB1FE4
:101570006A171B062CF5631B212C8C010A5F1F4F79
:10158000EE81FF8151853189539F302D11243D8398
:10159000211014C0FC0134910196FC018491932F19
:1015A0000297A0F45E9C90015F9C300D1124629F15
:1015B000C001639F900D1124080F191F612C28C0D2
:1015C000603209F0ACC022242394D7CF277088E082
:1015D000682E621A211101C0612CF80120E090E010
:1015E00080E0621731F03491830F911D2F5F3196A7
:1015F000F8CFF801E60FF11D5490E89EF001E99E46
:10160000F00DF89EF00D1124E40FF11D0E0F1F1FB9
:10161000AE81BF811496BC91BA83EE81FF81F581C2
:10162000FB83AE81BF811D96BC91BC83852C912C20
:10163000AA24A394B12C312CE9813E1608F06DC088
:10164000412CAE81BF8151968C915197481608F07C
:101650005DC0EC811D96EC93311002C0442079F0FE
:10166000AE81BF811596DC901597D3946A81CD0128
:101670000E94A0096D2D8E819F810E949109D12C1D
:10168000C12CC514B0F5712C211004C0F601E00F77
:10169000F11F7490662061F0EA14FB0449F4E72D11
:1016A000F0E0062C02C0F595E7950A94E2F77E2E4D
:1016B000EE81FF818189823079F44420B1F0729407
:1016C0008FE07822E72DF0E0EF52FF4F7490672D06
:1016D0008E819F810E946C09672D8E819F810E945F
:1016E0006C093FEFC31AD30ACCCFF72DFF707F2EC2
:1016F000E9CFD12C8D81D81639F060E08E819F81A1
:101700000E946C09D394F6CF43949BCF3394AFEFF0
:10171000AA1ABA0A080D191D8FCF6B81DBCE90E093
:1017200080E0A3CE0F93CF93DF93EC011B861A8644
:1017300060E40E9489090F8106950695069501507F
:101740004E81415020E060E0CE010E94BE09DF9151
:10175000CF910F910895CF93DF93EC0188810E9480
:1017600017058981882321F0DF91CF910C9417050B
:10177000DF91CF910895BC0130E020E0DC01A0535F
:10178000BC4FF90186E0EE0FFF1F8A95E1F7E60FE7
:10179000F71F91819D7F91834D915C911197405CE2
:1017A0005F4F11965C934E932F5F3F4F2F30310563
:1017B00041F70895FB0128E4208329E4218324E4F0
:1017C0002283DC01A95DBB4F9C919F709F5B93833B
:1017D0008D919C9124E0969587952A95E1F78F70DD
:1017E0008F5B848385E00895EF92FF920F931F93A0
:1017F000CF93DF93DB012C91213809F046C013967B
:101800002C911397223209F040C0FC0142811496BA
:101810002D913C9142171306C1F58C01EB5DFB4FF6
:10182000E080F180D0E0C0E0E114F10441F1F70183
:10183000468157816281738180E00E9432068F3F2A
:10184000980751F4CFEFDFEFCE01DF91CF911F91D9
:101850000F91FF90EF900895C80FD91FF7014085B1
:1018600051856481758180E80E9432068F3F980718
:1018700049F3C80FD91FF701E080F180D5CFF801F7
:10188000E75DFB4F81E08083DFCFD0E0C0E0DCCFBD
:10189000CF93DF93CDB7DEB7A0970FB6F894DEBF36
:1018A0000FBECDBFFC01DB018C918F5F8C939E013D
:1018B0002D5F3F4F8CE0D9011D928A95E9F799E0A1
:1018C000998384E08A8382E08D8383E08E839A8784
:1018D00091E29B8791E19C8791E09D879F8722E21F
:1018E000288B57E05B8B45E04C8B8E8B20E430E0FF
:1018F000388F2F8B998F5A8F4B8F8D8F3F8F2E8FD5
:1019000098A382818B83DF01A95DBB4F9C911196C7
:101910008C91998B8A8B8381982F90689D8B8F5F98
:101920008C8F40E250E0BE016F5F7F4F80E00E94ED
:101930003206A0960FB6F894DEBF0FBECDBFDF9182
:10194000CF91089584E98093BC0085E69091BC0016
:1019500094FF03C08150D1F7089581E00895FC0100
:101960006093BC002FEF3FEF8091BC0087FF06C063
:101970009091B900987F908381E0089521503109BA
:1019800099F780E00895CF93DF93EC016093BB005B
:1019900064E80E94AF0C882329F081E09881983296
:1019A00009F080E0DF91CF910895DF92EF92FF92EE
:1019B0000F931F93CF93DF93EC01D62EF42E8C89D7
:1019C000882329F0411103C00E94A20C1C8A8E01B9
:1019D0000E5E1F4F8C89811119C0EB8864EAC80123
:1019E0000E94AF0C882361F08A89883011F0803121
:1019F00039F4EE0CE092BB0064E8C8010E94AF0C21
:101A000060E0F11060E4C8010E94C30C6D2DC801B4
:101A10000E94C30C82E0F8120BC08C898F5F8C8B04
:101A2000DF91CF911F910F91FF90EF90DF9008957C
:101A30000E94A20C1C8AF4CF089590E080E00895E3
:101A40000E94151CFB0101900020E9F73197AF01BE
:101A5000461B570BDC01ED91FC910280F381E02DD8
:101A600009948F929F92AF92BF92CF92DF92EF92A2
:101A7000FF920F931F93CF93DF93CDB7DEB7A1975C
:101A80000FB6F894DEBF0FBECDBF6B017C01F7FE31
:101A900043C06DE282EF99E00E94F7098C01222792
:101AA0003327A9012C193D094E095F0919A2CE015E
:101AB00081967C019AE0892E912CA12CB12CCA012F
:101AC000B901A50194010E94911A605DF70162932A
:101AD0007F01211531054105510589F790E080E02E
:101AE000309729F0BF0182EF99E00E94220D800F0C
:101AF000911FA1960FB6F894DEBF0FBECDBFDF9148
:101B0000CF911F910F91FF90EF90DF90CF90BF90FA
:101B1000AF909F908F900895AC019B0119A28E0108
:101B20000F5D1F4F8AE0C82ED12CE12CF12CCA0189
:101B3000B901A70196010E94911A605DF8016293B4
:101B40008F01211531054105510589F790E080E0AD
:101B5000309779F2BF0182EF99E00E94220DC9CF40
:101B60000F931F93CF93DF93EC010E94220D8C0102
:101B700065E771E0CE010E94220D800F911FDF9179
:101B8000CF911F910F910895AF92BF92CF92DF92A4
:101B9000EF92FF920F931F93CF93DF93682F82EF03
:101BA00099E00E94910960E082EF99E00E94A0090B
:101BB000C6E4D1E083E4A82E81E0B82E90EEC92ED1
:101BC00093E0D92E2CEEE22E23E0F22E04ED13E06A
:101BD000E991E23108F0E251F0E0EB53FF4FE4917C
:101BE00090917B008E2F880F880F80729F7D892BAC
:101BF00080937B00E770E064E0937C0080917A0042
:101C0000806480937A0080917A0086FDFCCF809179
:101C1000780090917900F50161915F0182EF99E080
:101C20000E94F70968E771E082EF99E00E94220DB7
:101C3000F60161917191819191916F010E94310D35
:101C40006AE771E082EF99E00E94220DF70161914D
:101C50007191819191917F010E94310D6AE771E04C
:101C600082EF99E00E94220DF801619171918191BA
:101C700091918F010E94310D6AE771E082EF99E046
:101C80000E94220DF1E0C934DF0709F0A1CFDF91F6
:101C9000CF911F910F91FF90EF90DF90CF90BF9069
:101CA000AF9008950F931F93CF93DF93CDB7DEB717
:101CB0002A970FB6F894DEBF0FBECDBFDC01129697
:101CC0004C911297FB01248135814217130609F0CC
:101CD0003FC08C0191818081813AE1F59130A9F575
:101CE0009381933099F482818630E1F48FEC97E010
:101CF0000197F1F700C0000009521C4F45E050E089
:101D0000B80180E40E943206D8011C9281E02A9634
:101D10000FB6F894DEBF0FBECDBFDF91CF911F91FC
:101D20000F910895873091F789832FEF3FEF3B8321
:101D30002A838EE08C839D8345E050E0BE016F5F77
:101D40007F4F80E40E943206E1CF81E09330F9F2C8
:101D500080E0DDCF8132E1F79B3031F48281FD01FB
:101D6000E75DFB4F8083D2CF9A3029F48281FD0159
:101D7000E65DFB4FF7CF993059F78381833031F619
:101D800086819781892B39F470E060E0CE0101965D
:101D90000E944307BBCF8281853009F0B7CF64E052
:101DA00070E0CE0101960E94430786E0F801E952F7
:101DB000FC4F8083F80182858E3061F1828591E04D
:101DC000980F9287D8011A96EC91B0E4EB9FF0013E
:101DD0001124E00FF11F9385992339F0F8019285C2
:101DE0009E3018F492859F5FECCF30E4839FF00122
:101DF0001124E00FF11F91E09387F801E852FC4FA6
:101E000080838081D801A752BC4F811105C082E038
:101E10008C937CCF80E0F1CF21E02C938081A0E4F3
:101E20008A9FC0011124F801E80FF91F3B9630E4A6
:101E3000DF011D923A95E9F7800F911FFC0123877E
:101E4000F801E652FC4F8081918180549109918381
:101E500080835CCF81E080935B0480E893E0909383
:101E60002C0880932B0808951F920F920FB60F92A3
:101E700011242F933F938F939F93AF93BF938091A0
:101E8000F9039091FA03A091FB03B091FC03309108
:101E9000F80323E0230F2D3758F50196A11DB11D3E
:101EA0002093F8038093F9039093FA03A093FB0324
:101EB000B093FC038091FD039091FE03A091FF037A
:101EC000B09100040196A11DB11D8093FD03909374
:101ED000FE03A093FF03B0930004BF91AF919F91C5
:101EE0008F913F912F910F900FBE0F901F901895DB
:101EF00026E8230F0296A11DB11DD2CF1F920F928B
:101F00000FB60F9211248F939F938091E1009091CF
:101F1000E100937F9093E10083FF0FC01092E900EE
:101F200091E09093EB001092EC0092E39093ED001F
:101F30001092D30398E09093F00082FF22C093E0C8
:101F40009093E9009091F200992319F09AE390930D
:101F5000E8009091D003992341F09091D0039150E3
:101F60009093D003911101C05D9A9091CF03992372
:101F700041F09091CF0391509093CF03911101C004
:101F8000289A84FF18C08091E2008E7E8160809341
:101F9000E2008091E1008F7E8093E1008091D10387
:101FA0008E7E80618093D1039F918F910F900FBEA1
:101FB0000F901F90189580FFF7CF8091E2008E7EE2
:101FC00080618093E2008091E1008E7E8093E10049
:101FD0008091D1038E7E8160E5CF1F920F920FB664
:101FE0000F921124CF92DF92EF92FF920F931F93E3
:101FF0002F933F934F935F936F937F938F939F9311
:10200000AF93BF93EF93FF93CF93DF93CDB7DEB73B
:102010006C97DEBFCDBF1092E9008091E80083FF8E
:1020200025C068E0CE0145960E94360782EF809376
:10203000E8008D8987FF39C09091E80090FFFCCFC0
:10204000982F907609F034C19E894F89588D2F8939
:10205000F88C911131C0803861F58091D203809362
:10206000F1001092F1008EEF8093E8006C960FB6AD
:10207000F894DEBF0FBECDBFDF91CF91FF91EF91FE
:10208000BF91AF919F918F917F916F915F914F9190
:102090003F912F911F910F91FF90EF90DF90CF9084
:1020A0000F900FBE0F901F9018959EEF9093E80031
:1020B000C7CF1092F100D5CF913059F48111D3CF11
:1020C0004130510581F68091D2038D7F8093D203F8
:1020D000CACF933049F48111C6CF4130510519F66A
:1020E0008091D2038260F2CF953041F48091E80074
:1020F00080FFFCCF20682093E300B5CF963009F035
:10210000A9C00B8D1C8D22E01092E9001092CD0326
:102110001092CC03F2122EC01092CB031092CA037D
:102120000E9444081F8299E09983FA8291E09E837D
:1021300090EA98879AEF99872091CC033091CD034C
:10214000275F3F4F3C832B838D831092E9001092D1
:10215000CD031092CC031093CB030093CA0349E044
:1021600050E0BE016F5F7F4F80E00E9432060E9408
:10217000440879CF1093CB030093CA030E94A307AE
:10218000DC0112960D911C910115110509F44BC14A
:10219000D801ED91FC910480F581E02DBE016B5ECC
:1021A0007F4FC8010995009709F038C1F8010085F3
:1021B0001185EACFF3E0FF120EC08F89882309F45E
:1021C00040C0823061F440E862E180E591E00E9425
:1021D000FF05811148CF81E28093EB0047CF81302A
:1021E00029F440E868E087E491E0F1CF833099F783
:1021F0000E94A307DC011296ED90FC908E010F5F08
:102200001F4F6801E114F10479F0D701ED91FC91C1
:102210000680F781E02DB801C7010995080F111D4F
:10222000F701E084F184EECFD8011C92F601019011
:102230000020E9F73197BF016C197D0940E0C60124
:10224000C6CF61E371E0FB01449150E080E80E9459
:10225000320609CF973009F4BECF983021F481E0DF
:102260008093F10000CF993009F0FDCE837009F022
:10227000B2CFE4E3F1E081E031E096E32191222363
:1022800071F08093E9003093EB00DF0111972C91FE
:102290002093EC009093ED008F5F873079F78EE705
:1022A0008093EA001092EA008F898093D303DBCEFB
:1022B0008B8D9C8D1092E9001092CD031092CC036F
:1022C0009093CB038093CA03898D81118CC08E8932
:1022D0009D89913A49F4813209F07DCF47E050E081
:1022E00064E071E080E0B3CF913209F074CF8332C3
:1022F00069F48F89988DB0E0A0E0809300019093FD
:102300000101A0930201B0930301ADCE803239F4F4
:1023100067E070E084E091E00E944307A4CE82323F
:1023200009F0A1CE8F8980930B01EEEFFFE7859135
:1023300094918B3F9C4D51F1E0E0F8E080910401D5
:1023400090910501A0910601B0910701803B944056
:10235000A105B105F1F480910B0180FD1AC0EE3F9B
:102360008AE0F80789F587E797E791838083809172
:1023700060008093CE0388E19BE00FB6F894A895A7
:10238000809360000FBE909360006DCEEEEFFAE098
:10239000D5CF808191818737974709F064CEA89582
:1023A000809160008861809360008091CE0380936B
:1023B0006000EE3F2AE0F20789F08091FE0A9091DA
:1023C000FF0A918380834FCE808191818737980760
:1023D00051F29093FF0A8093FE0AC5CF1092FF0A34
:1023E0001092FE0A40CE0E94A307DC0112960D91C6
:1023F0001C910115110509F4EECED801ED91FC9167
:102400000190F081E02DBE016B5E7F4FC801099500
:10241000811129CEF80100851185EBCF1816190618
:102420000CF421CED8CEF1E0FF12C4CE65E371E00A
:102430000ACF1F920F920FB60F9211240F931F9382
:102440002F933F934F935F936F937F938F939F93BC
:10245000AF93BF93CF93DF93EF93FF9380917C086B
:10246000811105C00E94B70781E080937C088091AC
:1024700054048F5F0E942D07882309F440C0809187
:10248000540440E450E066E378E08F5F0E94030765
:10249000C0913708E0913608E150ED3080F5F0E06A
:1024A000EC5AFD4E0C94D61A61129412B312F71224
:1024B000161323137F127F127F123613A113C61334
:1024C000E9138091390890913A0820E4C29FF00105
:1024D0001124EF5AFB4FDF01DF9611969C938E93E8
:1024E00080914208838F80914308848F80913808BF
:1024F000848780913F08878780914108828FFF9170
:10250000EF91DF91CF91BF91AF919F918F917F918B
:102510006F915F914F913F912F911F910F910F906C
:102520000FBE0F901F901895809138089091390830
:1025300030E4C39FF0011124EF5AFB4F918B808B45
:1025400080913A0890913B08938B828B80913C0854
:1025500090913D08978B868B80914008909141081F
:10256000958B848BCCCF209138088091390890913D
:102570003A08A0E4CA9FF0011124DF013CE0239F48
:10258000A00DB11D1124AF5ABB4F90969C938E9312
:102590005F9780913B0890913C0892969C938E9314
:1025A000919780913D0890913E0894969C938E93CC
:1025B000939780913F089091400896969C938E93B4
:1025C0009597809141089091420898969C938E939C
:1025D000979780914308909144089A969C938E9384
:1025E0009997EF5AFB4F868D8F5F868F88CF8091AA
:1025F000380890913908A0E4CA9FF0011124EF5ADD
:10260000FB4F918F808F80913A0890913B0896877D
:10261000858780913C0890913D0890AF87AB809171
:102620003E0890913F0896AF85AF69CF80913808FA
:1026300090913908B0E4CB9FF0011124EF5AFB4F81
:10264000918F808F5CCF809138089091390820E479
:10265000C29FF0011124EF5AFB4F92AF81AF8091DE
:102660003A0890913B0894AF83AF49CF1091380856
:102670001130D1F5809139088823C1F030E4C39F2F
:10268000D0011124A057BB4F4D915C911197849FAD
:102690009001859F300D112411963C932E938F3F0E
:1026A00029F48FEF9FE711969C938E93CF3008F01B
:1026B00026CF80E4C89FE0011124CF5ADB4F82E08F
:1026C0008B87FE01EF5BFF4F118210820E94C505D0
:1026D0008B019C01E9966A871B878C873D871E8644
:1026E0001F86188A198A0BCF123089F48BE594E083
:1026F0000E94BB0BC0913708CF3008F000CF90E4A8
:10270000C99FE0011124CF5ADB4F1B87DACF13306A
:1027100009F0F5CECF3008F0F2CEA0E4CA9FF00168
:102720001124EF5AFB4F83858D7F838780912B087F
:1027300090912C08805C9F4F90932C0880932B08DD
:10274000DECECF3F81F481E080935B04ECE5F4E0E2
:1027500080EC93E0DF019C011D9221503040E1F7B5
:1027600080E893E0E9CFCF3008F0C9CE30E4C39FD2
:10277000D0011124AF5ABB4F1B961C9280915B0471
:10278000C81708F0BCCEC0935B04B9CEC13031F499
:1027900080912608826080932608B1CEC23021F451
:1027A000809126088D7FF7CFC33029F48BE594E024
:1027B0000E94BB0BA4CEC43031F2C53021F481E0BD
:1027C00080931C089CCEC63009F099CE10921C084C
:1027D00096CEC093330893CEEF92FF920F931F9340
:1027E000CF93109204041092030488EE93E0A0E0CB
:1027F000B0E08093050490930604A0930704B0937F
:10280000080489E591E090930204809301048FEF1E
:102810009FEF90930E0480930D041092F50910928F
:10282000F4091092FE091092FF091092010A109209
:10283000000A1092020AC1E0C093030A8BE691E0FD
:102840009093F3098093F2098BE08093ED0986E081
:102850008093EC0907E00093EA091092EB0961E02C
:102860008BE00E943D0561E08091EC090E943D05EE
:1028700061E08091EA090E943D0561E08091EB09E9
:102880000E943D058AE08093F10919E01093F00958
:1028900088E08093EE091092EF0961E08AE00E94DF
:1028A0003D0561E08091F0090E943D0561E0809165
:1028B000EE090E943D0561E08091EF090E943D050F
:1028C0001092B0091092AF091092B3091092B80992
:1028D0001092B7098FEF93E09093BA098093B909EA
:1028E0001092BC091092BB099093BE098093BD0958
:1028F0001092C0091092BF099093C2098093C10938
:102900001092C4091092C3099093C6098093C50917
:102910001092C8091092C7099093CA098093C909F7
:102920001092CC091092CB099093CE098093CD09D7
:102930001092D0091092CF099093D2098093D109B7
:102940001092D4091092D3099093D6098093D50997
:102950001092D8091092D7099093DA098093D90977
:102960001092DC091092DB099093DE098093DD0957
:102970001092E0091092DF099093E2098093E10937
:10298000C093E909C093E3091092B2091092B40907
:102990000093B5091092B60995E090938408C0930E
:1029A00085081093860884E08093870881EA8093E5
:1029B0008808C093890810938A08C0938B0825E87B
:1029C00020938C08C0938D0880938E0810928F08F6
:1029D00090939008C093910810939208C093930825
:1029E00096E190939408C093950890E89093960888
:1029F00006E2009397089FEF909398089FE79093C3
:102A0000990895E790939A0890E190939B0895E92F
:102A100090939C0893E090939D0880939E08109259
:102A20009F081093A00880E38093A1081093A20848
:102A300081E38093A3081093A40882E38093A50800
:102A400081E88093A60882E08093A70880EC8093B9
:102A5000A8088093A90886E290E00E94F01A7C0101
:102A6000E4E8F8E0DC0101900D920A95E1F78BE0D3
:102A700090E00E94F01A8C01FC0111821082F38216
:102A8000E28287EC93E09583848386E290E09783EB
:102A900086838BEC94E091878087128680917C08F6
:102AA000811104C00E94B707C0937C08E0917608AA
:102AB000F0917708309709F069C010937708009378
:102AC0007608F8018681978120853185820F931FD2
:102AD0002091780830917908820F931F909379089C
:102AE0008093780881E09091B409911101C080E051
:102AF0009091B3099A5F890F8093E4091092960927
:102B000010929509109298091092970910929A09BB
:102B10001092990910929C0910929B0910929E099B
:102B200010929D091092A00910929F091092A2097B
:102B30001092A1091092A4091092A3091092A6095B
:102B40001092A5091092A8091092A7091092AA093B
:102B50001092A9098FEF9FEF9093AC098093AB0976
:102B60009093AE098093AD0990E080E02091B30985
:102B70002817190691F08CF0E091AF09F091B00997
:102B8000E80FF91F10820196F1CFFC01808191813D
:102B90000097D9F71183008394CF8EE080938C093E
:102BA00024E630E030938E0920938D0981E08093F4
:102BB0008F09109290091092910910929209109227
:102BC00093091092940990E19093830930938509B9
:102BD00020938409809386091092870910928809AE
:102BE0001092890910928A0910928B09CF911F9136
:102BF0000F91FF90EF900895CF93DF93CDB7DEB79D
:102C0000C155D1090FB6F894DEBF0FBECDBF789481
:102C100084B5826084BD84B5816084BD85B58260E1
:102C200085BD85B5816085BD80916E008160809392
:102C30006E001092810080918100826080938100FB
:102C4000809181008160809381008091800081600B
:102C500080938000809191008260809391008091A8
:102C600091008160809391008091900081608093B9
:102C700090008091C10084608093C1008091C10068
:102C800082608093C1008091C10081608093C10007
:102C90008091C30081608093C3008091C0008260F6
:102CA0008093C0008091C20081608093C2008091B7
:102CB0007A00846080937A0080917A0082608093A9
:102CC0007A0080917A00816080937A0080917A0006
:102CD000806880937A001092D3031092D2031092EE
:102CE000D1038091D70081608093D70080EA8093E0
:102CF000D80089B5806189BD89B5826089BD09B474
:102D000000FEFDCF61E070E080E090E00E9493055E
:102D10008091D8008F7C80618093D8008091E00002
:102D2000807F8093E0008091E1008E7E8093E100BF
:102D30008DE08093E200559A209A68EB7BE080E07A
:102D400090E00E9493058FEF9FEF90930E04809385
:102D50000D046CE771E081E094E00E94B00D1092E8
:102D6000060A8CE38093050A1092B90084E48093EC
:102D7000BC008CE08093B8001092F6091092F7091D
:102D8000E9E4F3E0C590D490EBE4F3E0F490ECE4F4
:102D9000F3E0E491E093F809EDE4F3E0E491E093EB
:102DA000F909EEE4F3E0E491E093FA0910E000E0C1
:102DB0000F1558F4F601E00FF11F649182EF99E0CE
:102DC0000E9489090F5F1F4FF3CF82EF99E00E94A5
:102DD000920B82EF99E00E94920BE3E6F1E0F09310
:102DE000010AE093000A8491E4E6F1E0E491F82F0F
:102DF000319709F0AFC01092FB0981E08093030A7C
:102E000064E971E082EF99E00E94B00D6EE971E033
:102E100081E094E00E94B00D62E082E10E943D05F5
:102E200062E083E10E943D0562E084E10E943D058D
:102E300062E080918C090E943D0562E080918309E7
:102E40000E943D0563EB71E081E094E00E94B00DCB
:102E500063EE71E082EF99E00E94B00D0E94C5051B
:102E60006054784D6B01770FEE08FF0889E0E3E8C6
:102E7000F9E0DE01A05CBF4F01900D928A95E1F769
:102E8000CE01805C9F4F0E940B09882309F466C025
:102E900062EF71E081E094E00E94B00D61E172E0C8
:102EA00082EF99E00E94B00D6BE973E081E094E05D
:102EB0000E94B00D60E177E280E090E00E9493050F
:102EC00020E030E83093B8092093B7098FEF9FE7EF
:102ED0009093BA098093B9093093BC092093BB0938
:102EE0009093BE098093BD093093C0092093BF0918
:102EF0009093C2098093C1098CE091E09093E60918
:102F00008093E50981E08093B109ADB6BEB68091AA
:102F1000E409EDB7FEB7E81BF1090FB6F894FEBF60
:102F20000FBEEDBF2DB73EB72F5F3F4F6901E09059
:102F3000B309F12C8091AF099091B009D901FC013E
:102F40009F01281B390B2E153F050CF03DC1219127
:102F50002D93F6CF81E08093FB094FCF89E0ECE819
:102F6000F9E0DE01A75BBF4F01900D928A95E1F772
:102F7000CE01875B9F4F0E940B09882309F400C193
:102F80006DE172E081E094E00E94B00D69E372E0CF
:102F900082EF99E00E94B00DECEEF3E080EE93E05A
:102FA00044ED53E01192119211921192DC011D92A5
:102FB0001D921D921D92CD01DA011D921D921D924E
:102FC0001D92AD01B3E0E83FFB0761F763E472E0F7
:102FD00081E094E00E94B00D6DE572E081E094E044
:102FE0000E94B00D10E000E082EF99E00E94920B89
:102FF0000230110509F458C00330110509F482C0EC
:103000000130110519F168E772E082EF99E00E9442
:10301000B00D8AE090E00E94C40D89E0ECE8F9E090
:10302000DE01119601900D928A95E1F7CE0101968D
:103030000E940B0910E000E0882341F06AE872E08A
:1030400081E094E00E94B00D01E010E089E0ECE83E
:10305000F9E0DE011A9601900D928A95E1F7CE0112
:103060000A960E940B09882341F068EA72E081E029
:1030700094E00E94B00D02E010E089E0E3E8F9E09E
:10308000DE01539601900D928A95E1F7CE014396A9
:103090000E940B09882341F067EC72E081E094E024
:1030A0000E94B00D10E000E089E0ECE8F9E0DE01FC
:1030B0005C9601900D928A95E1F7CE014C960E94A4
:1030C0000B09882341F066EE72E081E094E00E94F3
:1030D000B00D03E010E089E0E3E8F9E0DE01959649
:1030E00001900D928A95E1F7CE0185960E940B0919
:1030F000882341F069E073E081E094E00E94B00D24
:1031000001E010E089E0ECE8F9E0DE019E96019034
:103110000D928A95E1F7CE018E960E940B098823C5
:1031200041F069E273E081E094E00E94B00D04E0B8
:1031300010E089E0E3E8F9E0DE01D79601900D9216
:103140008A95E1F7CE01C7960E940B09882341F0CA
:103150006CE473E081E094E00E94B00D02E010E0C6
:103160006AE070E080E090E00E9493050430110571
:1031700009F03ACF60E773E081E094E00E94B00D7F
:103180000E94C505C616D706E806F90628F467E8C2
:1031900073E081E094E086CEE091000AF091010AAC
:1031A00080E0309739F03396E4918091030AE89FEC
:1031B000802D112490E00E94C40D6AE070E080E050
:1031C00090E00E94930552CE8091B409882359F172
:1031D0008091AB099091AC0928E097FD09C068E6A1
:1031E00071E00E94C21A6DE270E00E94C21A262F9E
:1031F0008091AD099091AE0968E097FD08C068E63E
:1032000071E00E94C21A6DE270E00E94C21AF601DB
:10321000EE0DFF1D30E1639FB0011124262B2083AA
:10322000C70101967C0186010E0D1F1D6091950955
:10323000709196098091B5092FEF3FE740E050E883
:1032400081700E947404E80EF91E86010E0D1F1D88
:103250002091BD093091BE094091BB095091BC0934
:1032600060919709709198098091B5098695817050
:103270000E947404E80EF91E86010E0D1F1D209198
:10328000C1093091C2094091BF095091C0096091B4
:10329000990970919A098091B50982FB882780F974
:1032A0000E947404E80EF91E86010E0D1F1D209168
:1032B000C5093091C6094091C3095091C409609174
:1032C0009B0970919C098091B50983FB882780F93F
:1032D0000E947404E80EF91E86010E0D1F1D209138
:1032E000C9093091CA094091C7095091C809609134
:1032F0009D0970919E098091B509829581700E9407
:103300007404E80EF91E86010E0D1F1D2091CD09D3
:103310003091CE094091CB095091CC0960919F0921
:103320007091A0098091B50985FB882780F90E94DA
:103330007404E80EF91E86010E0D1F1D2091D1099F
:103340003091D2094091CF095091D0096091A309E1
:103350007091A4098091B60981700E947404E80EEE
:10336000F91E86010E0D1F1D2091D5093091D60939
:103370004091D3095091D4096091A1097091A2099B
:103380008091B609869581700E947404E80EF91E3A
:1033900086010E0D1F1D2091D9093091DA09409147
:1033A000D7095091D8096091A5097091A60980911B
:1033B000B60982FB882780F90E947404E80EF91E82
:1033C00086010E0D1F1D2091DD093091DE0940910F
:1033D000DB095091DC096091A7097091A8098091DF
:1033E000B60983FB882780F90E9474048E0D9F1D07
:1033F0008601080F191F2091E1093091E2094091DF
:10340000DF095091E0096091A9097091AA098091A2
:10341000B609829581700E94740480917C088111A4
:1034200005C00E94B70781E080937C084091E409C1
:103430008091E30950E07A019FEFE91AF90AADB7EC
:10344000BEB7AE19BF090FB6F894BEBF0FBEADBF71
:103450000DB71EB70F5F1F4F11968C93B601C801B1
:1034600001960E941A1C80915404A701B80180643F
:103470000E9469060FB6F894BEBE0FBEADBE8AEEBE
:1034800099E00E94AB0B8EEE99E00E94AB0BF89492
:10349000109290001092910010929500109294005A
:1034A0008FE891E09093990080939800809191002B
:1034B0008860809391008091910082608093910058
:1034C000809171008260809371007894FFCF052E07
:1034D00097FB1EF400940E947E1A57FD07D00E94AD
:1034E000911A07FC03D04EF40C947E1A5095409527
:1034F000309521953F4F4F4F5F4F089590958095A0
:10350000709561957F4F8F4F9F4F08950E94B31A1A
:10351000A59F900DB49F900DA49F800D911D112427
:103520000895A1E21A2EAA1BBB1BFD010DC0AA1F04
:10353000BB1FEE1FFF1FA217B307E407F50720F01C
:10354000A21BB30BE40BF50B661F771F881F991F97
:103550001A9469F760957095809590959B01AC01E0
:10356000BD01CF010895A29FB001B39FC001A39FE9
:10357000700D811D1124911DB29F700D811D1124AC
:10358000911D089597FB072E16F4009407D077FD40
:1035900009D00E94DC1A07FC05D03EF49095819575
:1035A0009F4F0895709561957F4F0895EE0FFF1F0F
:1035B0000590F491E02D0994AA1BBB1B51E107C0B3
:1035C000AA1FBB1FA617B70710F0A61BB70B881FB3
:1035D000991F5A95A9F780959095BC01CD01089542
:1035E0000F931F93CF93DF938230910510F482E005
:1035F00090E0E091090AF0910A0A30E020E0B0E0A2
:10360000A0E0309799F42115310509F44AC0281B30
:10361000390B24303105D8F58A819B8161157105FC
:1036200089F1FB0193838283FE0111C040815181A6
:103630000281138148175907E0F04817590799F498
:10364000109761F012960C93129713961C93329672
:10365000CF01DF91CF911F910F9108950093090A37
:1036600010930A0AF4CF2115310551F04217530780
:1036700038F0A901DB019A01BD01DF01F801C1CFDA
:10368000EF01F9CF90930A0A8093090ACDCFFE018A
:10369000E20FF31F819391932250310939832883DC
:1036A000D7CF2091070A3091080A232B41F42091AB
:1036B0003C0130913D013093080A2093070A209184
:1036C0003A0130913B012115310541F42DB73EB748
:1036D00040913E0150913F01241B350BE091070AB8
:1036E000F091080AE217F307A0F42E1B3F0B2817EE
:1036F000390778F0AC014E5F5F4F2417350748F06B
:103700004E0F5F1F5093080A4093070A81939193CD
:103710009FCFF0E0E0E09CCFCF93DF930097E9F0FC
:10372000FC01329713821282A091090AB0910A0A11
:10373000ED0130E020E01097A1F420813181820F6B
:10374000931F2091070A3091080A2817390709F0BA
:1037500061C0F093080AE093070ADF91CF910895C2
:10376000EA01CE17DF07E8F54A815B819E0141152A
:103770005105B1F7E901FB83EA8349915991C40FDF
:10378000D51FEC17FD0761F4808191810296840FAB
:10379000951FE90199838883828193819B838A8322
:1037A000F0E0E0E012968D919C9113970097B9F5A7
:1037B0002D913C911197CD010296820F931F20917C
:1037C000070A3091080A2817390739F6309751F55A
:1037D00010920A0A1092090AB093080AA093070AE5
:1037E000BCCFD383C28340815181840F951FC817FA
:1037F000D90761F44E5F5F4F88819981480F591F47
:10380000518340838A819B81938382832115310573
:1038100009F0B0CFF0930A0AE093090A9ECFFD01A8
:10382000DC01C0CF13821282D7CF81E090E0F89400
:103830000C94231CFB01DC0102C001900D9241504D
:103840005040D8F70895F894FFCFFFFFFFFF00E145
:103850000000000000006464646464646464646480
:103860006464646464646464646464646464646418
:103870006464646464646464646464646400C180F3
:103880008100000000000B0A8000021E0078797A97
:1038900012131400000000520E480CF40BDA0B0057
:1038A0000000008B087508AC08A108FB08B108D31C
:1038B0000800000000F70976071D0D1C0DD50C0D42
:1038C0000A003A002F0053657269616C20686173C9
:1038D00020696E697469616C697A65642E004C4375
:1038E0004420696E69742E004C4344206861732043
:1038F000496E697469616C697A65642E004C6F6108
:103900006465642063616C6962726174696F6E20C2
:103910006461746120616E642077616974696E67A7
:10392000207573657220696E7075742E000A43618C
:103930006C6962726174696F6E203F0055736572C5
:103940002063616E63656C2E20536B697020636128
:103950006C6962726174696F6E2E00536B697020BE
:1039600063616C69622E00557365722073656C65C6
:10397000637420746F2063616C6962726174696F33
:103980006E2E00476F2063616C69622E00436C6588
:10399000617265642063616C6962726174696F6EE3
:1039A00020646174612E0063616C69627261746984
:1039B0006F6E2070726F63657373207374617274BD
:1039C0002E0043656E746572206A6F797374696343
:1039D0006B2E200043616C6962726174696F6E20A6
:1039E00063656E74657220636F6D706C6574656479
:1039F0002E0043616C6962726174696F6E20746F2E
:103A0000706C65667420636F6D706C657465642E90
:103A10000043616C6962726174696F6E20676F2028
:103A20006261636B20746F2063656E7465722E0033
:103A300043616C6962726174696F6E20626F747445
:103A40006F6D726967687420636F6D706C65746503
:103A5000642E0043616C6962726174696F6E2067E5
:103A60006F206261636B20746F20746F706C656689
:103A7000742E0043616C6962726174696F6E2061BB
:103A800070706C7920666F72636520636F6D706C07
:103A9000657465642E0043616C6962726174696F5C
:103AA0006E20676F206261636B20746F20626F7499
:103AB000746F6D72696768742E0043616C6962721D
:103AC0006174696F6E20636F6D706C657465642ED0
:103AD000005573657220696E7075742074696D6528
:103AE0006F75742E0053617665642043616C696262
:103AF000726174696F6E206461746120746F204517
:083B00004550524F4D2E00000C
:1070000055C000006EC000006CC000006AC00000E7
:1070100068C0000066C0000064C0000062C00000DC
:1070200060C000005EC00000FCC400005AC0000048
:1070300058C0000056C0000054C0000052C00000FC
:1070400050C000005DC000004CC000004AC00000FD
:1070500048C0000046C0000044C0000042C000001C
:1070600040C000003EC000003CC000003AC000002C
:1070700038C0000036C0000034C0000032C000003C
:1070800030C000002EC000002CC000002AC000004C
:1070900028C0000026C0000024C0000022C000005C
:1070A00020C000001EC000001CC0000011241FBE34
:1070B000CFEFDAE0DEBFCDBF11E0A0E0B1E0E6E463
:1070C000FFE702C005900D92A43BB107D9F711E08C
:1070D000A4EBB1E001C01D92AD3CB107E1F74FD385
:1070E00030C78ECFF89410926F001092810081E02B
:1070F00085BF15BE47985D9A289A0C9400000895A4
:107100001F920F920FB60F9211242F938F939F937C
:10711000EF93FF9310928500109284008091B40148
:107120009091B501009741F001979093B50180933C
:10713000B401892B09F45D9A8091B6019091B70151
:10714000009741F001979093B7018093B601892B86
:1071500009F4289A8091BA019091BB01019690930D
:10716000BB018093BA01E0E0F0E0859194918F5FDC
:107170009F4F49F08091B8019091B9010196909389
:10718000B9018093B801FF91EF919F918F912F9159
:107190000F900FBE0F901F90189584E08093E90028
:1071A0000DC08091E8008B778093E80003C08EB318
:1071B000882351F08091E80082FFF9CF8091E800A8
:1071C00085FFEFCF8091F1000895982F83E08093A1
:1071D000E9008091E80085FD0DC08091E8008E7780
:1071E0008093E80003C08EB3882369F08091E800A3
:1071F00080FFF9CF9093F1005D9884E690E0909342
:10720000B5018093B40108954F925F926F927F927F
:107210008F929F92AF92BF92CF92DF92EF92FF92A6
:107220000F931F93CF93DF9384E08093E9008091C5
:10723000E80082FF57C2289884E690E09093B70157
:107240008093B601AADF182F853481F48CE49DE188
:107250009093B9018093B80107B600FCFDCFF9996E
:10726000FECF81E180935700E89503C0843519F47F
:1072700094DF8DE00DC28C34E1F38035D1F3843797
:1072800021F484E4A2DF80E003C2813611F489E5B1
:10729000FFC18134B1F481DF182F7FDF90E0880FC8
:1072A000991FAA2797FDA095BA2F312F330F20E001
:1072B000442737FD4095542F822B932BA42BB52BBD
:1072C000B8C1803711F483E5E3C1833549F4C0E0E8
:1072D000D1E089917ADF21E0C730D207D1F7D9C157
:1072E000863521F481E371DF80E3D2C1833731F445
:1072F00087E86BDF85E969DF8EE1CAC18536B9F4BD
:10730000E0E0F0E093E085E090935700E89507B661
:1073100000FCFDCF80935700E89507B600FCFDCF39
:10732000E058FF4FA0E7E030FA0771F7A2CF8237AD
:1073300039F4E1E0F0E089E0809357008491A8C13E
:10734000863439F4E0E0F0E089E0809357008491DE
:107350009FC18E3439F4E3E0F0E089E08093570078
:10736000849196C1813539F4E2E0F0E089E08093C0
:10737000570084918DC1823631F489E526DF80E0A3
:1073800024DF80E885C1823419F0873609F0E5C032
:107390001092B9011092B80100DF082FFEDEF82E1E
:1073A000FCDE682E8554823008F071C1902F80E099
:1073B000CF2DD0E0C82BD92B10926F00173609F0D3
:1073C0004BC081E180935700E895DD24CC24C39421
:1073D0003FC0E090BD01F090BE010091BF0110914F
:1073E000C001B6E46B16D9F4ED2DF0E0EE29FF29CB
:1073F000E4918E2FEADEDD2081F082E090E0A0E0D3
:10740000B0E0E80EF91E0A1F1B1FE092BD01F092CA
:10741000BE010093BF011093C001DC2418C0D80145
:10742000C701B695A7959795879575D5CEDE82E06D
:1074300090E0A0E0B0E0E80EF91E0A1F1B1FE092EA
:10744000BD01F092BE010093BF011093C0012197CE
:10745000209709F0BECF7DC08090BD019090BE0105
:10746000A090BF01B090C00196E4691609F05DC01C
:1074700083E0F40180935700E89507B600FCFDCF48
:1074800054C0F6E46F1661F5772031F1E090BD014C
:10749000F090BE010091BF011091C0017EDED82E98
:1074A000CC24852D90E08C299D29F7010C01409278
:1074B0005700E895112482E090E0A0E0B0E0E80EEB
:1074C000F91E0A1F1B1FE092BD01F092BE0100933E
:1074D000BF011093C00102C060DE582E742423C087
:1074E000E090BD01F090BE010091BF011091C0017C
:1074F00016950795F794E79450DE682FC70113D5CA
:107500008091BD019091BE01A091BF01B091C001D9
:107510000296A11DB11D8093BD019093BE01A09361
:10752000BF01B093C001219704C05524772444249F
:107530004394209709F0A5CF96E4691641F485E0BD
:10754000F40180935700E89507B600FCFDCF8DE06D
:107550003CDE82E080936F009CC0833471F4009124
:10756000BD011091BE0119DE90E021E0F8010C018F
:1075700020935700E89511247CCE833619F5E090CE
:10758000BD01F090BE010091BF011091C00105DE68
:10759000F701E16090E021E00C0120935700E895AD
:1075A000112482E090E0A0E0B0E0E80EF91E0A1F8E
:1075B0001B1FE092BD01F092BE010093BF0110932A
:1075C000C00157CE8D3661F4E091BD01F091BE014E
:1075D00085E080935700E89507B600FCFDCF49CEC3
:1075E000823551F4E091BD01F091BE0105911491F5
:1075F000812FEBDD802F4CC0843421F5E090BD015C
:10760000F090BE010091BF011091C0011695079541
:10761000F794E794C2DD682FC70185D48091BD013E
:107620009091BE01A091BF01B091C0010296A11D31
:10763000B11D8093BD019093BE01A093BF01B09393
:10764000C00117CE843609F5E090BD01F090BE016F
:107650000091BF011091C001D801C701B695A7954F
:107660009795879558D4B1DD82E090E0A0E0B0E036
:10767000E80EF91E0A1F1B1FE092BD01F092BE0129
:107680000093BF011093C00104C08B3111F08FE350
:107690009CDD83E08093E9009091E8008091E80010
:1076A0008E778093E80095FF04C010C08EB38823C6
:1076B000C9F08091E80080FFF9CF8091E8008E77D3
:1076C0008093E80003C08EB3882361F08091E800C6
:1076D00080FFF9CF84E08093E9008091E8008B7708
:1076E0008093E800DF91CF911F910F91FF90EF9071
:1076F000DF90CF90BF90AF909F908F907F906F90D2
:107700005F904F9008959091C501892F8F778132B6
:1077100049F58091C6018032A1F0813219F5913A84
:1077200009F58091E800877F8093E8008CE091E084
:1077300067E070E027D28091E8008B778093E800C3
:107740000895913279F48091E800877F8093E80072
:107750008CE091E067E070E079D28091E8008E776C
:107760008093E800089582E061EC42E0D1D083E0AC
:1077700061E842E1CDD084E060E842E1C9C01F93F6
:10778000209100081092000844B714BE88E10FB69B
:10779000F89480936000109260000FBE80E8E0E0F3
:1077A000F0E00FB6F89480936100E09361000FBEA3
:1077B00031E035BF92E095BF3F9A209A559A809369
:1077C00061001092610047985D9A289A1092890092
:1077D0008AEF8093880090936F0083E0809381000C
:1077E000859194918F5F9F4F11F03093BC01942F3E
:1077F00041FF19C0809109012817A9F08093000862
:10780000789480911301882339F08091BA01909186
:10781000BB018F5E9240C8F3F8941092000881E09B
:10782000809313010CC090FF04C08091BC01882399
:1078300051F493FF09C080910901281729F0809124
:10784000BC01882309F04EDCD4D078941092B901A1
:107850001092B8011EEF20C0D7DC4BD38091B80145
:107860009091B90181549F4110F0109213018091C1
:10787000C1019091C20101969093C2018093C10110
:10788000292F97FF03C0512F591B252F220F28178F
:1078900010F4479801C0479A809113018823E1F6BC
:1078A0008091E00081608093E0001CDC80E090E04B
:1078B0001F910895FA01923049F0933061F09130B0
:1078C000F9F484E191E022E130E01EC086E291E02B
:1078D0002EE330E019C0882329F484E691E024E007
:1078E00030E012C0813029F488E691E02EE130E0EA
:1078F0000BC0823029F488E891E02AE230E004C02D
:1079000080E090E020E030E091838083C901089519
:107910008093E9008091EB0081608093EB001092EE
:10792000ED006093EC004093ED008091EE00881F25
:107930008827881F08958091C50188238CF403C08F
:107940008EB38823B1F08091E80082FFF9CF809157
:10795000E8008B778093E80008958EB3882349F080
:107960008091E80080FFF9CF8091E8008E778093C6
:10797000E8000895EF92FF920F931F9345D04CD0EB
:1079800008ED10E0F80180818F7780838081806826
:10799000808380818F7D808319BC1EBA1092C301C1
:1079A00080EEE82EF12CF70180818B7F8083F80137
:1079B00080818160808380E060E042E0A9DFE1EEC9
:1079C000F0E080818E7F8083E2EEF0E08081816054
:1079D0008083808188608083F70180818E7F8083AF
:1079E000F8018081806180831F910F91FF90EF905B
:1079F0000895E7EDF0E08081816080838AE482BFB2
:107A000081E08093C401B6CFE8EDF0E080818E7F05
:107A100080831092E20008951092DA001092E10043
:107A200008951F920F920FB60F9211242F933F9338
:107A30004F935F936F937F938F939F93AF93BF9376
:107A4000EF93FF938091DA0080FF1BC08091D800F4
:107A500080FF17C08091DA008E7F8093DA008091DA
:107A6000D90080FF0BC080E189BD82E189BD09B4E6
:107A700000FEFDCF81E08EBB3BD203C019BC1EBA15
:107A800037D28091E10080FF17C08091E20080FF33
:107A900013C08091E2008E7F8093E2008091E2002B
:107AA00080618093E2008091D80080628093D8004A
:107AB00019BC85E08EBB1CD28091E10084FF2CC0F4
:107AC0008091E20084FF28C080E189BD82E189BD08
:107AD00009B400FEFDCF8091D8008F7D8093D8003F
:107AE0008091E1008F7E8093E1008091E2008F7EA3
:107AF0008093E2008091E20081608093E2008091B7
:107B0000C301882331F48091E30087FD02C081E046
:107B100001C084E08EBBECD18091E10083FF21C0E5
:107B20008091E20083FF1DC08091E100877F8093F8
:107B3000E10082E08EBB1092C3018091E1008E7F54
:107B40008093E1008091E2008E7F8093E20080913B
:107B5000E20080618093E20080E060E042E0D8DEF5
:107B6000C7D1FF91EF91BF91AF919F918F917F917D
:107B70006F915F914F913F912F910F900FBE0F909A
:107B80001F9018959C014091CB015091CC01461754
:107B9000570718F4F90190E044C06115710511F020
:107BA000AB01F8CF8091E8008E778093E80040E049
:107BB00050E0F0CF8EB3882309F444C0853009F437
:107BC00043C08091E80083FF02C081E00895809166
:107BD000E80082FD31C08091E80080FF22C08091E2
:107BE000F3009091F200782F60E0292F30E0262BEF
:107BF000372B07C081918093F100415050402F5F97
:107C00003F4F4115510519F02830310598F390E0A8
:107C10002830310509F491E08091E8008E77809357
:107C2000E8004115510531F6992321F605C08EB3C0
:107C3000882341F0853041F08091E80082FFF7CF42
:107C400080E0089582E0089583E008959C01611525
:107C5000710529F48091E8008B778093E800F901A1
:107C600026C08EB3882391F1853091F18091E80090
:107C700083FF02C081E008958091E80082FFF1CF88
:107C800006C08091F10081936150704059F02091BD
:107C9000F3008091F200322F20E090E0822B932BB2
:107CA000892B79F78091E8008B778093E800611544
:107CB0007105B9F605C08EB3882341F0853041F0D7
:107CC0008091E80080FFF7CF80E0089582E008957A
:107CD00083E008950F931F93DF93CF9300D0CDB728
:107CE000DEB7E5ECF1E08091F100819381E0ED3CBD
:107CF000F807C9F708DD8091E80083FFE4C08091B0
:107D0000C5019091C601953009F46DC0963040F4DC
:107D1000913081F1913070F0933009F0D4C02AC0D5
:107D2000983009F4A3C0993009F4B2C0963009F034
:107D3000CAC07CC0803809F4C6C0823809F0C3C00C
:107D40008091C90187708093E9008091EB001092C7
:107D5000E9002091E800277F2093E80090E025E0EB
:107D6000969587952A95E1F781708093F10010929E
:107D7000F10087C0882319F0823009F0A4C08F7108
:107D8000823009F0A0C08091C701882331F520918D
:107D9000C901277009F497C02093E9008091EB0096
:107DA00080FF1BC0933021F48091EB00806213C0F0
:107DB0008091EB0080618093EB0081E090E002C055
:107DC000880F991F2A95E2F78093EA001092EA0043
:107DD0008091EB0088608093EB001092E900809125
:107DE000E800877F51C0882309F06DC01091C7015A
:107DF0001F770FB7F8948091E800877F8093E800A1
:107E00009ADD8091E80080FFFCCF8091E3008078CC
:107E1000812B8093E30080688093E300112311F4A9
:107E200082E001C083E08EBB0FBF4DC0805882301E
:107E300008F049C08091C7019091C8016091C901C3
:107E4000AE014F5F5F4F36DDBC01009709F43BC0C8
:107E50008091E800877F8093E80089819A8192DE93
:107E60008091E8008B778093E8002DC0803859F529
:107E70008091E800877F8093E8008091C301809320
:107E8000F1008091E8008E778093E80054DD1BC0FC
:107E90008823C9F49091C7019230A8F48091E8003A
:107EA000877F8093E8009093C30145DD8091C301F3
:107EB000882331F48091E30087FD02C081E001C096
:107EC00084E08EBB50DC8091E80083FF0AC0809183
:107ED000EB0080628093EB008091E800877F8093C5
:107EE000E8000F900F90CF91DF911F910F910895AF
:107EF00008951F938EB3882361F01091E9001092CA
:107F0000E9008091E80083FF01C0E4DE1770109360
:107F1000E9001F910895F999FECF92BD81BDF89AAD
:107F2000992780B50895262FF999FECF1FBA92BDE3
:107F300081BD20BD0FB6F894FA9AF99A0FBE01964A
:107F40000895F894FFCF4341544552494E4100777C
:107F500000080000000000000801120110010200EA
:107F600000084F1B059201000201000109023E00BA
:107F70000201008032090400000102020100052410
:107F800000100104240204052406000107058203F1
:107F90000800FF09040100020A00000007050402AE
:107FA00010000107058302100001040309041E03E9
:107FB000500072006F0020004D00690063007200E5
:107FC0006F002000350056002000200000002A032A
:107FD00053007000610072006B00460075006E0077
:107FE000200045006C0065006300740072006F00A3
:0A7FF0006E006900630073000000DA
:00000001FF
